{
  "abi": [
    {
      "inputs": [],
      "stateMutability": "nonpayable",
      "type": "constructor"
    },
    {
      "inputs": [],
      "name": "ApprovalCallerNotOwnerNorApproved",
      "type": "error"
    },
    {
      "inputs": [],
      "name": "ApprovalQueryForNonexistentToken",
      "type": "error"
    },
    {
      "inputs": [],
      "name": "BalanceQueryForZeroAddress",
      "type": "error"
    },
    {
      "inputs": [],
      "name": "BlockNumberTooOld",
      "type": "error"
    },
    {
      "inputs": [],
      "name": "ChipHasBeenMinted",
      "type": "error"
    },
    {
      "inputs": [],
      "name": "InvalidBlockNumber",
      "type": "error"
    },
    {
      "inputs": [],
      "name": "MintERC2309QuantityExceedsLimit",
      "type": "error"
    },
    {
      "inputs": [],
      "name": "MintToZeroAddress",
      "type": "error"
    },
    {
      "inputs": [],
      "name": "MintZeroQuantity",
      "type": "error"
    },
    {
      "inputs": [],
      "name": "MismatchArrayLength",
      "type": "error"
    },
    {
      "inputs": [],
      "name": "NoMintedTokenId",
      "type": "error"
    },
    {
      "inputs": [],
      "name": "OwnerQueryForNonexistentToken",
      "type": "error"
    },
    {
      "inputs": [],
      "name": "OwnershipNotInitializedForExtraData",
      "type": "error"
    },
    {
      "inputs": [],
      "name": "TransferCallerNotOwnerNorApproved",
      "type": "error"
    },
    {
      "inputs": [],
      "name": "TransferFromIncorrectOwner",
      "type": "error"
    },
    {
      "inputs": [],
      "name": "TransferToNonERC721ReceiverImplementer",
      "type": "error"
    },
    {
      "inputs": [],
      "name": "TransferToZeroAddress",
      "type": "error"
    },
    {
      "inputs": [],
      "name": "URIQueryForNonexistentToken",
      "type": "error"
    },
    {
      "inputs": [],
      "name": "UnauthorizedToMint",
      "type": "error"
    },
    {
      "inputs": [],
      "name": "UpdatingChipForUnsetChipMapping",
      "type": "error"
    },
    {
      "anonymous": false,
      "inputs": [
        {
          "indexed": true,
          "internalType": "address",
          "name": "owner",
          "type": "address"
        },
        {
          "indexed": true,
          "internalType": "address",
          "name": "approved",
          "type": "address"
        },
        {
          "indexed": true,
          "internalType": "uint256",
          "name": "tokenId",
          "type": "uint256"
        }
      ],
      "name": "Approval",
      "type": "event"
    },
    {
      "anonymous": false,
      "inputs": [
        {
          "indexed": true,
          "internalType": "address",
          "name": "owner",
          "type": "address"
        },
        {
          "indexed": true,
          "internalType": "address",
          "name": "operator",
          "type": "address"
        },
        {
          "indexed": false,
          "internalType": "bool",
          "name": "approved",
          "type": "bool"
        }
      ],
      "name": "ApprovalForAll",
      "type": "event"
    },
    {
      "anonymous": false,
      "inputs": [
        {
          "indexed": true,
          "internalType": "uint256",
          "name": "fromTokenId",
          "type": "uint256"
        },
        {
          "indexed": false,
          "internalType": "uint256",
          "name": "toTokenId",
          "type": "uint256"
        },
        {
          "indexed": true,
          "internalType": "address",
          "name": "from",
          "type": "address"
        },
        {
          "indexed": true,
          "internalType": "address",
          "name": "to",
          "type": "address"
        }
      ],
      "name": "ConsecutiveTransfer",
      "type": "event"
    },
    {
      "anonymous": false,
      "inputs": [
        {
          "indexed": true,
          "internalType": "address",
          "name": "previousOwner",
          "type": "address"
        },
        {
          "indexed": true,
          "internalType": "address",
          "name": "newOwner",
          "type": "address"
        }
      ],
      "name": "OwnershipTransferred",
      "type": "event"
    },
    {
      "anonymous": false,
      "inputs": [
        {
          "indexed": true,
          "internalType": "uint256",
          "name": "tokenId",
          "type": "uint256"
        },
        {
          "indexed": true,
          "internalType": "address",
          "name": "oldChipAddress",
          "type": "address"
        },
        {
          "indexed": true,
          "internalType": "address",
          "name": "newChipAddress",
          "type": "address"
        }
      ],
      "name": "PBTChipRemapping",
      "type": "event"
    },
    {
      "anonymous": false,
      "inputs": [
        {
          "indexed": true,
          "internalType": "uint256",
          "name": "tokenId",
          "type": "uint256"
        },
        {
          "indexed": true,
          "internalType": "address",
          "name": "chipAddress",
          "type": "address"
        }
      ],
      "name": "PBTMint",
      "type": "event"
    },
    {
      "anonymous": false,
      "inputs": [
        {
          "indexed": true,
          "internalType": "address",
          "name": "from",
          "type": "address"
        },
        {
          "indexed": true,
          "internalType": "address",
          "name": "to",
          "type": "address"
        },
        {
          "indexed": true,
          "internalType": "uint256",
          "name": "tokenId",
          "type": "uint256"
        }
      ],
      "name": "Transfer",
      "type": "event"
    },
    {
      "inputs": [
        {
          "internalType": "address",
          "name": "to",
          "type": "address"
        },
        {
          "internalType": "uint256",
          "name": "tokenId",
          "type": "uint256"
        }
      ],
      "name": "approve",
      "outputs": [],
      "stateMutability": "payable",
      "type": "function"
    },
    {
      "inputs": [
        {
          "internalType": "address",
          "name": "owner",
          "type": "address"
        }
      ],
      "name": "balanceOf",
      "outputs": [
        {
          "internalType": "uint256",
          "name": "",
          "type": "uint256"
        }
      ],
      "stateMutability": "view",
      "type": "function"
    },
    {
      "inputs": [
        {
          "internalType": "uint256",
          "name": "tokenId",
          "type": "uint256"
        }
      ],
      "name": "getApproved",
      "outputs": [
        {
          "internalType": "address",
          "name": "",
          "type": "address"
        }
      ],
      "stateMutability": "view",
      "type": "function"
    },
    {
      "inputs": [],
      "name": "getMaxBlockhashValidWindow",
      "outputs": [
        {
          "internalType": "uint256",
          "name": "",
          "type": "uint256"
        }
      ],
      "stateMutability": "pure",
      "type": "function"
    },
    {
      "inputs": [
        {
          "internalType": "address",
          "name": "owner",
          "type": "address"
        },
        {
          "internalType": "address",
          "name": "operator",
          "type": "address"
        }
      ],
      "name": "isApprovedForAll",
      "outputs": [
        {
          "internalType": "bool",
          "name": "",
          "type": "bool"
        }
      ],
      "stateMutability": "view",
      "type": "function"
    },
    {
      "inputs": [
        {
          "internalType": "uint256",
          "name": "tokenId",
          "type": "uint256"
        },
        {
          "internalType": "bytes",
          "name": "payload",
          "type": "bytes"
        },
        {
          "internalType": "bytes",
          "name": "signature",
          "type": "bytes"
        }
      ],
      "name": "isChipSignatureForToken",
      "outputs": [
        {
          "internalType": "bool",
          "name": "",
          "type": "bool"
        }
      ],
      "stateMutability": "view",
      "type": "function"
    },
    {
      "inputs": [
        {
          "internalType": "bytes",
          "name": "signatureFromChip",
          "type": "bytes"
        },
        {
          "internalType": "uint256",
          "name": "blockNumberUsedInSig",
          "type": "uint256"
        }
      ],
      "name": "mintChip",
      "outputs": [],
      "stateMutability": "nonpayable",
      "type": "function"
    },
    {
      "inputs": [],
      "name": "name",
      "outputs": [
        {
          "internalType": "string",
          "name": "",
          "type": "string"
        }
      ],
      "stateMutability": "view",
      "type": "function"
    },
    {
      "inputs": [],
      "name": "owner",
      "outputs": [
        {
          "internalType": "address",
          "name": "",
          "type": "address"
        }
      ],
      "stateMutability": "view",
      "type": "function"
    },
    {
      "inputs": [
        {
          "internalType": "uint256",
          "name": "tokenId",
          "type": "uint256"
        }
      ],
      "name": "ownerOf",
      "outputs": [
        {
          "internalType": "address",
          "name": "",
          "type": "address"
        }
      ],
      "stateMutability": "view",
      "type": "function"
    },
    {
      "inputs": [],
      "name": "renounceOwnership",
      "outputs": [],
      "stateMutability": "nonpayable",
      "type": "function"
    },
    {
      "inputs": [
        {
          "internalType": "address",
          "name": "from",
          "type": "address"
        },
        {
          "internalType": "address",
          "name": "to",
          "type": "address"
        },
        {
          "internalType": "uint256",
          "name": "tokenId",
          "type": "uint256"
        }
      ],
      "name": "safeTransferFrom",
      "outputs": [],
      "stateMutability": "payable",
      "type": "function"
    },
    {
      "inputs": [
        {
          "internalType": "address",
          "name": "from",
          "type": "address"
        },
        {
          "internalType": "address",
          "name": "to",
          "type": "address"
        },
        {
          "internalType": "uint256",
          "name": "tokenId",
          "type": "uint256"
        },
        {
          "internalType": "bytes",
          "name": "_data",
          "type": "bytes"
        }
      ],
      "name": "safeTransferFrom",
      "outputs": [],
      "stateMutability": "payable",
      "type": "function"
    },
    {
      "inputs": [
        {
          "internalType": "address[]",
          "name": "chipAddresses",
          "type": "address[]"
        }
      ],
      "name": "seedChipAddresses",
      "outputs": [],
      "stateMutability": "nonpayable",
      "type": "function"
    },
    {
      "inputs": [
        {
          "internalType": "address",
          "name": "operator",
          "type": "address"
        },
        {
          "internalType": "bool",
          "name": "approved",
          "type": "bool"
        }
      ],
      "name": "setApprovalForAll",
      "outputs": [],
      "stateMutability": "nonpayable",
      "type": "function"
    },
    {
      "inputs": [
        {
          "internalType": "bytes4",
          "name": "interfaceId",
          "type": "bytes4"
        }
      ],
      "name": "supportsInterface",
      "outputs": [
        {
          "internalType": "bool",
          "name": "",
          "type": "bool"
        }
      ],
      "stateMutability": "view",
      "type": "function"
    },
    {
      "inputs": [],
      "name": "symbol",
      "outputs": [
        {
          "internalType": "string",
          "name": "",
          "type": "string"
        }
      ],
      "stateMutability": "view",
      "type": "function"
    },
    {
      "inputs": [
        {
          "internalType": "address",
          "name": "chipAddress",
          "type": "address"
        }
      ],
      "name": "tokenIdFor",
      "outputs": [
        {
          "internalType": "uint256",
          "name": "",
          "type": "uint256"
        }
      ],
      "stateMutability": "view",
      "type": "function"
    },
    {
      "inputs": [
        {
          "internalType": "uint256",
          "name": "tokenId",
          "type": "uint256"
        }
      ],
      "name": "tokenURI",
      "outputs": [
        {
          "internalType": "string",
          "name": "",
          "type": "string"
        }
      ],
      "stateMutability": "view",
      "type": "function"
    },
    {
      "inputs": [],
      "name": "totalSupply",
      "outputs": [
        {
          "internalType": "uint256",
          "name": "",
          "type": "uint256"
        }
      ],
      "stateMutability": "view",
      "type": "function"
    },
    {
      "inputs": [
        {
          "internalType": "address",
          "name": "from",
          "type": "address"
        },
        {
          "internalType": "address",
          "name": "to",
          "type": "address"
        },
        {
          "internalType": "uint256",
          "name": "tokenId",
          "type": "uint256"
        }
      ],
      "name": "transferFrom",
      "outputs": [],
      "stateMutability": "payable",
      "type": "function"
    },
    {
      "inputs": [
        {
          "internalType": "address",
          "name": "newOwner",
          "type": "address"
        }
      ],
      "name": "transferOwnership",
      "outputs": [],
      "stateMutability": "nonpayable",
      "type": "function"
    },
    {
      "inputs": [
        {
          "internalType": "bytes",
          "name": "signatureFromChip",
          "type": "bytes"
        },
        {
          "internalType": "uint256",
          "name": "blockNumberUsedInSig",
          "type": "uint256"
        }
      ],
      "name": "transferTokenWithChip",
      "outputs": [],
      "stateMutability": "nonpayable",
      "type": "function"
    },
    {
      "inputs": [
        {
          "internalType": "bytes",
          "name": "signatureFromChip",
          "type": "bytes"
        },
        {
          "internalType": "uint256",
          "name": "blockNumberUsedInSig",
          "type": "uint256"
        },
        {
          "internalType": "bool",
          "name": "useSafeTransferFrom",
          "type": "bool"
        }
      ],
      "name": "transferTokenWithChip",
      "outputs": [],
      "stateMutability": "nonpayable",
      "type": "function"
    },
    {
      "inputs": [
        {
          "internalType": "address[]",
          "name": "oldChipAddresses",
          "type": "address[]"
        },
        {
          "internalType": "address[]",
          "name": "newChipAddresses",
          "type": "address[]"
        }
      ],
      "name": "updateChipAddresses",
      "outputs": [],
      "stateMutability": "nonpayable",
      "type": "function"
    }
  ],
  "bytecode": {
    "object": "0x60806040523480156200001157600080fd5b5060408051808201825260038082526214109560ea1b60208084018290528451808601909552918452908301529060026200004d83826200016c565b5060036200005c82826200016c565b50506001600055506200006f3362000075565b62000238565b600880546001600160a01b038381166001600160a01b0319831681179093556040519116919082907f8be0079c531659141344cd1fd0a4f28419497f9722a3daafe3b4186f6b6457e090600090a35050565b634e487b7160e01b600052604160045260246000fd5b600181811c90821680620000f257607f821691505b6020821081036200011357634e487b7160e01b600052602260045260246000fd5b50919050565b601f8211156200016757600081815260208120601f850160051c81016020861015620001425750805b601f850160051c820191505b8181101562000163578281556001016200014e565b5050505b505050565b81516001600160401b03811115620001885762000188620000c7565b620001a081620001998454620000dd565b8462000119565b602080601f831160018114620001d85760008415620001bf5750858301515b600019600386901b1c1916600185901b17855562000163565b600085815260208120601f198616915b828110156200020957888601518255948401946001909101908401620001e8565b5085821015620002285787850151600019600388901b60f8161c191681555b5050505050600190811b01905550565b61259e80620002486000396000f3fe6080604052600436106101965760003560e01c8063715018a6116100e1578063b88d4fde1161008a578063d67d13ad11610064578063d67d13ad14610457578063dcf960ee14610477578063e985e9c514610497578063f2fde38b146104ed57600080fd5b8063b88d4fde14610410578063ba70316f14610423578063c87b56dd1461043757600080fd5b80638da5cb5b116100bb5780638da5cb5b146103b057806395d89b41146103db578063a22cb465146103f057600080fd5b8063715018a61461035b5780637905825114610370578063797f6f621461039057600080fd5b80631b6601fb116101435780634b5f42ea1161011d5780634b5f42ea146102fb5780636352211e1461031b57806370a082311461033b57600080fd5b80631b6601fb146102b557806323b872dd146102d557806342842e0e146102e857600080fd5b806308daee361161017457806308daee3614610237578063095ea7b31461026557806318160ddd1461027a57600080fd5b806301ffc9a71461019b57806306fdde03146101d0578063081812fc146101f2575b600080fd5b3480156101a757600080fd5b506101bb6101b6366004611e33565b61050d565b60405190151581526020015b60405180910390f35b3480156101dc57600080fd5b506101e561056a565b6040516101c79190611ebe565b3480156101fe57600080fd5b5061021261020d366004611ed1565b6105fc565b60405173ffffffffffffffffffffffffffffffffffffffff90911681526020016101c7565b34801561024357600080fd5b50610257610252366004611f13565b610666565b6040519081526020016101c7565b610278610273366004611f2e565b6106c8565b005b34801561028657600080fd5b50600154600054037fffffffffffffffffffffffffffffffffffffffffffffffffffffffffffffffff01610257565b3480156102c157600080fd5b506102786102d0366004611f9a565b6107dd565b6102786102e3366004611fe6565b61092f565b6102786102f6366004611fe6565b610be9565b34801561030757600080fd5b506101bb610316366004612022565b610c09565b34801561032757600080fd5b50610212610336366004611ed1565b610d17565b34801561034757600080fd5b50610257610356366004611f13565b610d22565b34801561036757600080fd5b50610278610da4565b34801561037c57600080fd5b5061027861038b3660046121a1565b610db8565b34801561039c57600080fd5b506102786103ab366004612205565b610fbe565b3480156103bc57600080fd5b5060085473ffffffffffffffffffffffffffffffffffffffff16610212565b3480156103e757600080fd5b506101e561106e565b3480156103fc57600080fd5b5061027861040b36600461224a565b61107d565b61027861041e36600461227d565b611114565b34801561042f57600080fd5b506064610257565b34801561044357600080fd5b506101e5610452366004611ed1565b611184565b34801561046357600080fd5b50610278610472366004611f9a565b61122e565b34801561048357600080fd5b5061027861049236600461235b565b611237565b3480156104a357600080fd5b506101bb6104b23660046123b8565b73ffffffffffffffffffffffffffffffffffffffff918216600090815260076020908152604080832093909416825291909152205460ff1690565b3480156104f957600080fd5b50610278610508366004611f13565b611243565b6000610518826112ff565b8061056457507fffffffff0000000000000000000000000000000000000000000000000000000082167f4901df9f00000000000000000000000000000000000000000000000000000000145b92915050565b606060028054610579906123e2565b80601f01602080910402602001604051908101604052809291908181526020018280546105a5906123e2565b80156105f25780601f106105c7576101008083540402835291602001916105f2565b820191906000526020600020905b8154815290600101906020018083116105d557829003601f168201915b5050505050905090565b6000610607826113e0565b61063d576040517fcf4700e400000000000000000000000000000000000000000000000000000000815260040160405180910390fd5b5060009081526006602052604090205473ffffffffffffffffffffffffffffffffffffffff1690565b73ffffffffffffffffffffffffffffffffffffffff8116600090815260096020526040812060010154808203610564576040517f72a61b7300000000000000000000000000000000000000000000000000000000815260040160405180910390fd5b60006106d382610d17565b90503373ffffffffffffffffffffffffffffffffffffffff82161461075c5773ffffffffffffffffffffffffffffffffffffffff8116600090815260076020908152604080832033845290915290205460ff1661075c576040517fcfb3b94200000000000000000000000000000000000000000000000000000000815260040160405180910390fd5b60008281526006602052604080822080547fffffffffffffffffffffffff00000000000000000000000000000000000000001673ffffffffffffffffffffffffffffffffffffffff87811691821790925591518593918516917f8c5be1e5ebec7d5bd14f71427d1e84f3dd0314c0f7b2291e5b200ac8c7c3b92591a4505050565b60006107ea84848461142e565b73ffffffffffffffffffffffffffffffffffffffff8116600090815260096020526040902060018101549192509015801561083a5750805473ffffffffffffffffffffffffffffffffffffffff16155b15610871576040517fefbff93900000000000000000000000000000000000000000000000000000000815260040160405180910390fd5b6001810154156108ad576040517fda1b587800000000000000000000000000000000000000000000000000000000815260040160405180910390fd5b60005473ffffffffffffffffffffffffffffffffffffffff831660009081526009602052604090206001908101919091556108e9903390611586565b3360016108f560005490565b6108ff9190612435565b6040517f1e98ed4919fa421d4b871082794f2c63228dd0b5efb584e1a6131de3a7d26cb290600090a35050505050565b600061093a826116c4565b90508373ffffffffffffffffffffffffffffffffffffffff168173ffffffffffffffffffffffffffffffffffffffff16146109a1576040517fa114810000000000000000000000000000000000000000000000000000000000815260040160405180910390fd5b600082815260066020526040902080543380821473ffffffffffffffffffffffffffffffffffffffff881690911417610a3e5773ffffffffffffffffffffffffffffffffffffffff8616600090815260076020908152604080832033845290915290205460ff16610a3e576040517f59c896be00000000000000000000000000000000000000000000000000000000815260040160405180910390fd5b73ffffffffffffffffffffffffffffffffffffffff8516610a8b576040517fea553b3400000000000000000000000000000000000000000000000000000000815260040160405180910390fd5b8015610a9657600082555b73ffffffffffffffffffffffffffffffffffffffff86811660009081526005602052604080822080547fffffffffffffffffffffffffffffffffffffffffffffffffffffffffffffffff019055918716808252919020805460010190554260a01b177c0200000000000000000000000000000000000000000000000000000000176000858152600460205260408120919091557c020000000000000000000000000000000000000000000000000000000084169003610b8557600184016000818152600460205260408120549003610b83576000548114610b835760008181526004602052604090208490555b505b838573ffffffffffffffffffffffffffffffffffffffff168773ffffffffffffffffffffffffffffffffffffffff167fddf252ad1be2c89b69c2b068fc378daa952ba7f163c4a11628f55a4df523b3ef60405160405180910390a45b505050505050565b610c0483838360405180602001604052806000815250611114565b505050565b6000610c14866113e0565b610c4a576040517f72a61b7300000000000000000000000000000000000000000000000000000000815260040160405180910390fd5b6000610c9a8686604051610c5f92919061246f565b60405180910390207f19457468657265756d205369676e6564204d6573736167653a0a3332000000006000908152601c91909152603c902090565b90506000610ce085858080601f01602080910402602001604051908101604052809392919081815260200183838082843760009201919091525086939250506117839050565b73ffffffffffffffffffffffffffffffffffffffff1660009081526009602052604090206001015488149250505095945050505050565b6000610564826116c4565b600073ffffffffffffffffffffffffffffffffffffffff8216610d71576040517f8f4eb60400000000000000000000000000000000000000000000000000000000815260040160405180910390fd5b5073ffffffffffffffffffffffffffffffffffffffff1660009081526005602052604090205467ffffffffffffffff1690565b610dac6117a7565b610db66000611828565b565b610dc06117a7565b8051825114610dfb576040517fd5a966d600000000000000000000000000000000000000000000000000000000815260040160405180910390fd5b60005b8251811015610c04576000838281518110610e1b57610e1b61247f565b60209081029190910181015173ffffffffffffffffffffffffffffffffffffffff80821660009081526009845260408082208151808301909252805490931681526001909201549382018490529193509190819003610ea6576040517f794ea60900000000000000000000000000000000000000000000000000000000815260040160405180910390fd5b6000858581518110610eba57610eba61247f565b60209081029190910181015160408051808201825273ffffffffffffffffffffffffffffffffffffffff80841680835282860188815260008281526009909752848720935184547fffffffffffffffffffffffff000000000000000000000000000000000000000016908416178455516001909301929092559151929450929087169185917fcd66beec785ca42d0623b531cba30cb24eacae50d76d9301b6945341cbd5856591a450505073ffffffffffffffffffffffffffffffffffffffff16600090815260096020526040812080547fffffffffffffffffffffffff000000000000000000000000000000000000000016815560019081019190915501610dfe565b610fc66117a7565b60005b815181101561106a576000828281518110610fe657610fe661247f565b60209081029190910181015160408051808201825273ffffffffffffffffffffffffffffffffffffffff9283168082526000828601818152918152600990955291909320925183547fffffffffffffffffffffffff000000000000000000000000000000000000000016921691909117825551600191820155919091019050610fc9565b5050565b606060038054610579906123e2565b33600081815260076020908152604080832073ffffffffffffffffffffffffffffffffffffffff87168085529083529281902080547fffffffffffffffffffffffffffffffffffffffffffffffffffffffffffffff001686151590811790915590519081529192917f17307eab39ab6107e8899845ad3d59bd9653f200f220920489ca2b5937696c31910160405180910390a35050565b61111f84848461092f565b73ffffffffffffffffffffffffffffffffffffffff83163b1561117e576111488484848461189f565b61117e576040517fd1a57ed600000000000000000000000000000000000000000000000000000000815260040160405180910390fd5b50505050565b606061118f826113e0565b6111c5576040517fa14c4b5000000000000000000000000000000000000000000000000000000000815260040160405180910390fd5b60006111dc60408051602081019091526000815290565b905080516000036111fc5760405180602001604052806000815250611227565b8061120684611a19565b6040516020016112179291906124ae565b6040516020818303038152906040525b9392505050565b610c0483838360005b61117e84848484611a7b565b61124b6117a7565b73ffffffffffffffffffffffffffffffffffffffff81166112f3576040517f08c379a000000000000000000000000000000000000000000000000000000000815260206004820152602660248201527f4f776e61626c653a206e6577206f776e657220697320746865207a65726f206160448201527f646472657373000000000000000000000000000000000000000000000000000060648201526084015b60405180910390fd5b6112fc81611828565b50565b60007f01ffc9a7000000000000000000000000000000000000000000000000000000007fffffffff000000000000000000000000000000000000000000000000000000008316148061139257507f80ac58cd000000000000000000000000000000000000000000000000000000007fffffffff000000000000000000000000000000000000000000000000000000008316145b806105645750507fffffffff00000000000000000000000000000000000000000000000000000000167f5b5e139f000000000000000000000000000000000000000000000000000000001490565b6000816001111580156113f4575060005482105b80156105645750506000908152600460205260409020547c0100000000000000000000000000000000000000000000000000000000161590565b6000814311611469576040517f4e47846c00000000000000000000000000000000000000000000000000000000815260040160405180910390fd5b60646114758343612435565b11156114ad576040517fa398a38e00000000000000000000000000000000000000000000000000000000815260040160405180910390fd5b6040517fffffffffffffffffffffffffffffffffffffffff0000000000000000000000003360601b1660208201528240603482018190529060009061153890605401604051602081830303815290604052805190602001207f19457468657265756d205369676e6564204d6573736167653a0a3332000000006000908152601c91909152603c902090565b905061157c86868080601f01602080910402602001604051908101604052809392919081815260200183838082843760009201919091525085939250506117839050565b9695505050505050565b60008054908290036115c4576040517fb562e8dd00000000000000000000000000000000000000000000000000000000815260040160405180910390fd5b73ffffffffffffffffffffffffffffffffffffffff831660008181526005602090815260408083208054680100000000000000018802019055848352600490915281206001851460e11b4260a01b178317905582840190839083907fddf252ad1be2c89b69c2b068fc378daa952ba7f163c4a11628f55a4df523b3ef8180a4600183015b81811461168057808360007fddf252ad1be2c89b69c2b068fc378daa952ba7f163c4a11628f55a4df523b3ef600080a4600101611648565b50816000036116bb576040517f2e07630000000000000000000000000000000000000000000000000000000000815260040160405180910390fd5b60005550505050565b600081806001116117515760005481101561175157600081815260046020526040812054907c01000000000000000000000000000000000000000000000000000000008216900361174f575b8060000361122757507fffffffffffffffffffffffffffffffffffffffffffffffffffffffffffffffff01600081815260046020526040902054611710565b505b6040517fdf2d9b4200000000000000000000000000000000000000000000000000000000815260040160405180910390fd5b60008060006117928585611b1e565b9150915061179f81611b63565b509392505050565b60085473ffffffffffffffffffffffffffffffffffffffff163314610db6576040517f08c379a000000000000000000000000000000000000000000000000000000000815260206004820181905260248201527f4f776e61626c653a2063616c6c6572206973206e6f7420746865206f776e657260448201526064016112ea565b6008805473ffffffffffffffffffffffffffffffffffffffff8381167fffffffffffffffffffffffff0000000000000000000000000000000000000000831681179093556040519116919082907f8be0079c531659141344cd1fd0a4f28419497f9722a3daafe3b4186f6b6457e090600090a35050565b6040517f150b7a0200000000000000000000000000000000000000000000000000000000815260009073ffffffffffffffffffffffffffffffffffffffff85169063150b7a02906118fa9033908990889088906004016124dd565b6020604051808303816000875af1925050508015611953575060408051601f3d9081017fffffffffffffffffffffffffffffffffffffffffffffffffffffffffffffffe01682019092526119509181019061251c565b60015b6119ca573d808015611981576040519150601f19603f3d011682016040523d82523d6000602084013e611986565b606091505b5080516000036119c2576040517fd1a57ed600000000000000000000000000000000000000000000000000000000815260040160405180910390fd5b805181602001fd5b7fffffffff00000000000000000000000000000000000000000000000000000000167f150b7a02000000000000000000000000000000000000000000000000000000001490505b949350505050565b606060a06040510180604052602081039150506000815280825b600183039250600a81066030018353600a900480611a3357508190037fffffffffffffffffffffffffffffffffffffffffffffffffffffffffffffffe0909101908152919050565b6000611a8885858561142e565b73ffffffffffffffffffffffffffffffffffffffff8116600090815260096020526040812060010154919250819003611aed576040517f72a61b7300000000000000000000000000000000000000000000000000000000815260040160405180910390fd5b8215611b0b57611b06611aff82610d17565b3383610be9565b610be1565b610be1611b1782610d17565b338361092f565b6000808251604103611b545760208301516040840151606085015160001a611b4887828585611d16565b94509450505050611b5c565b506000905060025b9250929050565b6000816004811115611b7757611b77612539565b03611b7f5750565b6001816004811115611b9357611b93612539565b03611bfa576040517f08c379a000000000000000000000000000000000000000000000000000000000815260206004820152601860248201527f45434453413a20696e76616c6964207369676e6174757265000000000000000060448201526064016112ea565b6002816004811115611c0e57611c0e612539565b03611c75576040517f08c379a000000000000000000000000000000000000000000000000000000000815260206004820152601f60248201527f45434453413a20696e76616c6964207369676e6174757265206c656e6774680060448201526064016112ea565b6003816004811115611c8957611c89612539565b036112fc576040517f08c379a000000000000000000000000000000000000000000000000000000000815260206004820152602260248201527f45434453413a20696e76616c6964207369676e6174757265202773272076616c60448201527f756500000000000000000000000000000000000000000000000000000000000060648201526084016112ea565b6000807f7fffffffffffffffffffffffffffffff5d576e7357a4501ddfe92f46681b20a0831115611d4d5750600090506003611dfc565b6040805160008082526020820180845289905260ff881692820192909252606081018690526080810185905260019060a0016020604051602081039080840390855afa158015611da1573d6000803e3d6000fd5b50506040517fffffffffffffffffffffffffffffffffffffffffffffffffffffffffffffffe0015191505073ffffffffffffffffffffffffffffffffffffffff8116611df557600060019250925050611dfc565b9150600090505b94509492505050565b7fffffffff00000000000000000000000000000000000000000000000000000000811681146112fc57600080fd5b600060208284031215611e4557600080fd5b813561122781611e05565b60005b83811015611e6b578181015183820152602001611e53565b50506000910152565b60008151808452611e8c816020860160208601611e50565b601f017fffffffffffffffffffffffffffffffffffffffffffffffffffffffffffffffe0169290920160200192915050565b6020815260006112276020830184611e74565b600060208284031215611ee357600080fd5b5035919050565b803573ffffffffffffffffffffffffffffffffffffffff81168114611f0e57600080fd5b919050565b600060208284031215611f2557600080fd5b61122782611eea565b60008060408385031215611f4157600080fd5b611f4a83611eea565b946020939093013593505050565b60008083601f840112611f6a57600080fd5b50813567ffffffffffffffff811115611f8257600080fd5b602083019150836020828501011115611b5c57600080fd5b600080600060408486031215611faf57600080fd5b833567ffffffffffffffff811115611fc657600080fd5b611fd286828701611f58565b909790965060209590950135949350505050565b600080600060608486031215611ffb57600080fd5b61200484611eea565b925061201260208501611eea565b9150604084013590509250925092565b60008060008060006060868803121561203a57600080fd5b85359450602086013567ffffffffffffffff8082111561205957600080fd5b61206589838a01611f58565b9096509450604088013591508082111561207e57600080fd5b5061208b88828901611f58565b969995985093965092949392505050565b7f4e487b7100000000000000000000000000000000000000000000000000000000600052604160045260246000fd5b604051601f82017fffffffffffffffffffffffffffffffffffffffffffffffffffffffffffffffe016810167ffffffffffffffff811182821017156121125761211261209c565b604052919050565b600082601f83011261212b57600080fd5b8135602067ffffffffffffffff8211156121475761214761209c565b8160051b6121568282016120cb565b928352848101820192828101908785111561217057600080fd5b83870192505b848310156121965761218783611eea565b82529183019190830190612176565b979650505050505050565b600080604083850312156121b457600080fd5b823567ffffffffffffffff808211156121cc57600080fd5b6121d88683870161211a565b935060208501359150808211156121ee57600080fd5b506121fb8582860161211a565b9150509250929050565b60006020828403121561221757600080fd5b813567ffffffffffffffff81111561222e57600080fd5b611a118482850161211a565b80358015158114611f0e57600080fd5b6000806040838503121561225d57600080fd5b61226683611eea565b91506122746020840161223a565b90509250929050565b6000806000806080858703121561229357600080fd5b61229c85611eea565b935060206122ab818701611eea565b935060408601359250606086013567ffffffffffffffff808211156122cf57600080fd5b818801915088601f8301126122e357600080fd5b8135818111156122f5576122f561209c565b612325847fffffffffffffffffffffffffffffffffffffffffffffffffffffffffffffffe0601f840116016120cb565b9150808252898482850101111561233b57600080fd5b808484018584013760008482840101525080935050505092959194509250565b6000806000806060858703121561237157600080fd5b843567ffffffffffffffff81111561238857600080fd5b61239487828801611f58565b909550935050602085013591506123ad6040860161223a565b905092959194509250565b600080604083850312156123cb57600080fd5b6123d483611eea565b915061227460208401611eea565b600181811c908216806123f657607f821691505b60208210810361242f577f4e487b7100000000000000000000000000000000000000000000000000000000600052602260045260246000fd5b50919050565b81810381811115610564577f4e487b7100000000000000000000000000000000000000000000000000000000600052601160045260246000fd5b8183823760009101908152919050565b7f4e487b7100000000000000000000000000000000000000000000000000000000600052603260045260246000fd5b600083516124c0818460208801611e50565b8351908301906124d4818360208801611e50565b01949350505050565b600073ffffffffffffffffffffffffffffffffffffffff80871683528086166020840152508360408301526080606083015261157c6080830184611e74565b60006020828403121561252e57600080fd5b815161122781611e05565b7f4e487b7100000000000000000000000000000000000000000000000000000000600052602160045260246000fdfea264697066735822122026153740c5c0902e8d93a96fe15399958465739d2a34bed7861a59dc17cf4c8c64736f6c63430008140033",
    "linkReferences": {}
  },
  "methodIdentifiers": {
    "approve(address,uint256)": "095ea7b3",
    "balanceOf(address)": "70a08231",
    "getApproved(uint256)": "081812fc",
    "getMaxBlockhashValidWindow()": "ba70316f",
    "isApprovedForAll(address,address)": "e985e9c5",
    "isChipSignatureForToken(uint256,bytes,bytes)": "4b5f42ea",
    "mintChip(bytes,uint256)": "1b6601fb",
    "name()": "06fdde03",
    "owner()": "8da5cb5b",
    "ownerOf(uint256)": "6352211e",
    "renounceOwnership()": "715018a6",
    "safeTransferFrom(address,address,uint256)": "42842e0e",
    "safeTransferFrom(address,address,uint256,bytes)": "b88d4fde",
    "seedChipAddresses(address[])": "797f6f62",
    "setApprovalForAll(address,bool)": "a22cb465",
    "supportsInterface(bytes4)": "01ffc9a7",
    "symbol()": "95d89b41",
    "tokenIdFor(address)": "08daee36",
    "tokenURI(uint256)": "c87b56dd",
    "totalSupply()": "18160ddd",
    "transferFrom(address,address,uint256)": "23b872dd",
    "transferOwnership(address)": "f2fde38b",
    "transferTokenWithChip(bytes,uint256)": "d67d13ad",
    "transferTokenWithChip(bytes,uint256,bool)": "dcf960ee",
    "updateChipAddresses(address[],address[])": "79058251"
  },
  "id": 40
}